:020000040000FA
:04000000BFEF00F05E
:020004000000FA
:040008001DEF00F0F8
:080018001100F00ED76E600E1E
:10002000D66E1200116A096A106A1200142A166A42
:10003000156A1200136A126A1200F2A41100F294F7
:100040000DEC00F014B049EC00F011A02AEF00F024
:100050003AEF00F0102AD8B0092AEA0E095CD8A4B9
:100060001100600E105CD8A41100010E116E89867B
:100070001AEC00F0122AD8B0132A010E135CD8A48F
:100080001100F40E125CD8A4110089761AEC00F06D
:100090001100152AD8B0162A030E165CD8A4120037
:1000A000E80E155CD8A4120005A01200176A897822
:1000B0001200040E065CD8A88996D8B8898612006A
:1000C00005686FEF00F0056A6FEF00F075EC01F066
:1000D00012EC00F005A060EF00F063EF00F081A0EB
:1000E0006FEF00F075EC01F059EC00F012001768AA
:1000F00088EF00F0176A88EF00F075EC01F012EC61
:1001000000F016EC00F017A077EF00F07AEF00F0A7
:1001100081A288EF00F075EC01F0146A59EC00F050
:100120001200600ED36E9B8C1200956A92809380B1
:1001300093829296F19E92981200370E006E750E81
:10014000016E0D0E026E7D0E036E0568899612EC2F
:1001500000F0040E066E116A046A8998146A176A20
:1001600012000E0EC16EC06A010EC26E1200D09E49
:10017000C00EF26E12008F0ED56EF28A120091EC54
:1001800000F095EC00F09DEC00F0B1EC00F0B7EC65
:1001900000F0BBEC00F081A066EC00F081A27DECE9
:1001A00000F005A0CBEF00F0C282C2B2D5EF00F0A4
:1001B0008B0EC45CD8B8DFEF00F0F0EF00F0270E34
:1001C000C45CD8B8FFEF00F04E0EC45CD8B813EF93
:1001D00001F0750EC45CD8B824EF01F035EF01F0E2
:1001E000B20EC45CD8B845EF01F0D90EC45CD8B8E3
:1001F00055EF01F0FF0EC45CD8B865EF01F004A024
:1002000065EF01F0010E065CD8B4CBEF00F0010EF3
:10021000066E12EC00F000C08CFF11A08986010E62
:10022000046ECBEF00F0020E065CD8B4CBEF00F00A
:10023000020E066E12EC00F001C08CFF11A0898640
:10024000010E046ECBEF00F0030E065CD8B4CBEFCA
:1002500000F0030E066E12EC00F002C08CFF11A03D
:100260008986010E046ECBEF00F0040E065CD8B454
:10027000CBEF00F0040E066E12EC00F003C08CFF12
:1002800011A08996046ACBEF00F0050E065CD8B485
:10029000CBEF00F0050E066E12EC00F002C08CFFF2
:1002A00011A08996046ACBEF00F0060E065CD8B464
:1002B000CBEF00F0060E066E12EC00F001C08CFFD2
:1002C00011A08996046ACBEF00F0070E065CD8B443
:1002D000CBEF00F0070E066E12EC00F000C08CFFB2
:1002E00011A08996046ACBEF00F0010E076EB20EE2
:1002F000086E072AD8A079EF01F0010E076E082AD0
:08030000D8A079EF01F0120012
:020000040030CA
:0100010008F6
:010003001EDE
:010005008179
:00000001FF
