:020000040000FA
:04000000F5EF01F027
:020004000000FA
:0400080020EF00F0F5
:080018001100F00ED76E600E1E
:10002000D66E12000B6A096A0A6A1200196A186A07
:1000300012000E68106A0F6A12000D6A0C6A120034
:10004000F2A41100F2940DEC00F058EC00F0C0ECBA
:1000500000F01CB037EC00F011B044EC00F00EB032
:10006000FEEC00F00BA0DBEF00F0EFEF00F0182A41
:10007000D8B0192A1E50195CD8A412001D50185C63
:10008000D8A412001C6A1200182AD8B0192AE50E4A
:10009000195CD8A41200B00E185CD8A412008EEC23
:1000A00001F0116A12EC00F005681EEC04F0120079
:1000B00061EF00F0222A21B0B5EF00F0AAEF00F0C6
:1000C0001200010E065CD8B490EF00F0020E065C40
:1000D000D8B48AEF00F0030E065CD8B484EF00F0C9
:1000E000040E065CD8B494EF00F0050E065CD8B49C
:1000F00084EF00F0060E065CD8B48AEF00F0070E1D
:10010000065CD8B490EF00F0010E1F6E040E206E56
:100110005AEF00F0020E1F6E030E206E5AEF00F031
:1001200098EC00F060EF00F08A9C8A9E60EF00F08F
:1001300004A09FEC00F004B0A2EC00F012008A8C46
:100140008A9E12008A9C8A8E120004A08A9C04B0A7
:100150008A9E12002050225CD8A460EF00F098EC38
:1001600000F0226A216860EF00F01F50225CD8A4E2
:1001700060EF00F0226AA5EC00F0216A60EF00F069
:10018000122A140E125CD8B4C7EC00F0120013C08F
:1001900015F0898446EC04F0010E155CD8B4D8EF54
:1001A00000F015063DEC04F01506D8A4D2EF00F0DF
:1001B0008994126A12001BB0110011B011000A2AB2
:1001C000D8B0092AE50E095CD8A41100B00E0A5C6B
:1001D000D8A41100010E0B6E89861DEC00F00C2ACC
:1001E000D8B00D2A010E0D5CD8A41100F40E0C5CE1
:1001F000D8A4110089761DEC00F011000F2AD8B0A8
:10020000102A030E105CD8A41200E80E0F5CD8A4CC
:10021000120005A0120011B012001B689EEC01F044
:100220001200040E065CD8A88996D8B889861200F8
:1002300005681EEC04F02EEF01F0056A22EC04F0D4
:100240002EEF01F02EEC04F011B02EEF01F012ECC5
:1002500000F005A018EF01F01DEF01F081A02EEFD6
:1002600001F02EEC04F011EC01F012001168A2EC88
:1002700001F09EEC01F016EC00F01A6A1AEC04F0A2
:1002800065EF01F0116A1EEC04F00568000E1A5CBF
:10029000D8A48EEC01F065EF01F02EEC04F005A07F
:1002A000120012EC00F019EC00F011EC01F081A248
:1002B00057EF01F02EEC04F00E6A1BB066EF01F070
:1002C00011A036EF01F042EF01F01200000E1A5CAF
:1002D000D8A465EF01F01B6A1EEC04F065EF01F095
:1002E0002EEC04F011A088EF01F01A2A1F0E1A5C00
:1002F000D8B493EF01F0010E1A5CD8A48EEC01F093
:1003000006C0EEFF13C0EEFF16EC00F012EC00F09A
:1003100081A488EF01F02EEC04F0120018C0EEFF6B
:1003200019C0EEFF12008EEC01F01A06116A12ECF1
:1003300000F005681EEC04F088EF01F0E96A010E98
:10034000EA6E12009EEC01F0076A072AEE6AD8A650
:10035000A5EF01F01200600ED36E9B8C120092800C
:100360009282929492969380938293849396939898
:10037000939C939E946A956A969096929694F19E19
:100380001200370E006E750E016E0D0E026E7D0EA0
:10039000036E0568899603C08CFF1EEC04F012EC16
:1003A00000F0040E066E050E136E0B6A046A0E6AE8
:1003B000116A126A16EC00F01A6A226A216889949E
:1003C0008A8C8A9E2AEC04F08B888B8A12000D0E90
:1003D000C16EC06A010EC26E1200D09EC00EF26ED7
:1003E00012008F0ED56EF28A1200ABEC01F0AFEC6A
:1003F00001F0C1EC01F0E7EC01F0EDEC01F0F1EC03
:1004000001F01BB084EF03F081A022EC01F081A287
:100410004DEC01F081A470EC01F0B4EC02F005A009
:1004200001EF02F0C29455EC04F07FEC03F08B0E68
:10043000C45CD8B81EEF02F02FEF02F0270EC45CA8
:10044000D8B83EEF02F04E0EC45CD8B852EF02F0BE
:10045000750EC45CD8B863EF02F074EF02F0B20E10
:10046000C45CD8B884EF02F0D90EC45CD8B894EF5D
:1004700002F0FF0EC45CD8B8A4EF02F004A0A4EF11
:1004800002F0010E065CD8B401EF02F0010E066E18
:1004900012EC00F000C08CFF0BA08986010E046EE8
:1004A00001EF02F0020E065CD8B401EF02F0020E7A
:1004B000066E12EC00F001C08CFF0BA08986010EC5
:1004C000046E01EF02F0030E065CD8B401EF02F0F7
:1004D000030E066E12EC00F002C08CFF0BA08986A2
:1004E000010E046E01EF02F0040E065CD8B401EFB9
:1004F00002F0040E066E12EC00F003C08CFF0BA09D
:100500008996046A01EF02F0050E065CD8B401EF8B
:1005100002F0050E066E12EC00F002C08CFF0BA07C
:100520008996046A01EF02F0060E065CD8B401EF6A
:1005300002F0060E066E12EC00F001C08CFF0BA05C
:100540008996046A01EF02F0070E065CD8B401EF49
:1005500002F0070E066E12EC00F000C08CFF0BA03C
:100560008996046A01EF02F0C28455EC04F07FEC36
:1005700003F0890EC45CD8B8C0EF02F0D6EF02F0E9
:100580000B0EC45CD8B8EDEF02F02F0EC45CD8B8E7
:1005900000EF03F0530EC45CD8B813EF03F0770EEE
:1005A000C45CD8B823EF03F033EF03F0AD0EC45CA6
:1005B000D8B843EF03F0D10EC45CD8B852EF03F0C3
:1005C000F50EC45CD8B861EF03F0FF0EC45CD8B878
:1005D00070EF03F0EDEF02F0120014A070EF03F0E3
:1005E000010E135CD8B4ECEF02F0010E136E12ECA6
:1005F00000F02AEC04F08B80010E146EECEF02F098
:1006000014A070EF03F0020E135CD8B4ECEF02F00C
:10061000020E136E12EC00F02AEC04F08B82010E35
:10062000146EECEF02F0030E135CD8B4ECEF02F0A2
:10063000030E136E12EC00F02AEC04F08B84010E12
:10064000146EECEF02F0040E135CD8B4ECEF02F081
:10065000040E136E12EC00F02AEC04F08B86010EEF
:10066000146EECEF02F0050E135CD8B4ECEF02F060
:10067000050E136E12EC00F02AEC04F08B888B8AC6
:10068000146AECEF02F0060E135CD8B4ECEF02F043
:10069000060E136E12EC00F02AEC04F08B8C146A38
:1006A000ECEF02F0070E135CD8B4ECEF02F0070E8B
:1006B000136E12EC00F02AEC04F08B8E146AECEF4F
:1006C00002F0080E135CD8B4ECEF02F0080E136EC3
:1006D00012EC00F02AEC04F08A86146AECEF02F0C7
:1006E000090E135CD8B4ECEF02F0090E136E12EC95
:1006F00000F02AEC04F08A88146AECEF02F0C2825F
:10070000C2B280EF03F0120026EC04F0000E1A5C77
:10071000D8B4A0EF03F0EECF06F0EECF13F0EECF9B
:100720001DF0EECF1EF0A8EC03F0EFEC03F016EC9A
:1007300000F01C681CB09AEF03F01A0686EF03F075
:100740001B6A1EEC04F0056812EC00F001EF02F0E9
:10075000010E065CD8B4CCEC03F0020E065CD8B4F3
:10076000D1EC03F0030E065CD8B4D6EC03F0040E13
:10077000065CD8B4DBEC03F0050E065CD8B4E0EC04
:1007800003F0060E065CD8B4E5EC03F0070E065C39
:10079000D8B4EAEC03F0120000C08CFF898604682C
:1007A000120001C08CFF89860468120002C08CFF11
:1007B00089860468120003C08CFF8996046A1200BF
:1007C00002C08CFF8996046A120001C08CFF8996D2
:1007D000046A120000C08CFF8996046A12002AEC99
:1007E00004F0010E135CD8B48B80020E135CD8B4F5
:1007F0008B82030E135CD8B48B84040E135CD8B4C4
:100800008B86050E135CD8B417EC04F0060E135C4F
:10081000D8B48B8C070E135CD8B48B8E080E135C87
:10082000D8B48A86090E135CD8B48A8812008B88E3
:100830008B8A12008D808D928D9412008D908D8206
:100840008D9412008D908D928D8412008D808D82FA
:100850008D8412008B6A8A968A981200010E076EA8
:10086000B20E086E072AD8A032EF04F0010E076E10
:10087000082AD8A032EF04F01200240E166E0000F1
:100880000000162AD8A041EF04F01200000E166EE8
:10089000FE0E176E162AD8A04AEF04F0000E166E50
:1008A000172AD8A04AEF04F01200D00E076E0000FD
:0C08B0000000072AD8A059EF04F0120045
:020000040030CA
:0100010008F6
:010003001EDE
:010005008179
:00000001FF
