:020000040000FA
:04000000FCEF01F020
:020004000000FA
:0400080020EF00F0F5
:080018001100F00ED76E600E1E
:10002000D66E12000B6A096A0A6A1200196A186A07
:1000300012000E68106A0F6A12000D6A0C6A120034
:10004000F2A41100F2940DEC00F058EC00F0C0ECBA
:1000500000F01CB037EC00F011B044EC00F00EB032
:10006000FEEC00F00BA0DBEF00F0EFEF00F0182A41
:10007000D8B0192A1E50195CD8A412001D50185C63
:10008000D8A412001C6A1200182AD8B0192AE50E4A
:10009000195CD8A41200B00E185CD8A4120093EC1E
:1000A00001F0116A12EC00F005682AEC04F012006D
:1000B00061EF00F0222A21B0B5EF00F0AAEF00F0C6
:1000C0001200010E065CD8B490EF00F0020E065C40
:1000D000D8B48AEF00F0030E065CD8B484EF00F0C9
:1000E000040E065CD8B494EF00F0050E065CD8B49C
:1000F00084EF00F0060E065CD8B48AEF00F0070E1D
:10010000065CD8B490EF00F0010E1F6E040E206E56
:100110005AEF00F0020E1F6E030E206E5AEF00F031
:1001200098EC00F060EF00F08A9C8A9E60EF00F08F
:1001300004A09FEC00F004B0A2EC00F012008A8C46
:100140008A9E12008A9C8A8E120004A08A9C04B0A7
:100150008A9E12002050225CD8A460EF00F098EC38
:1001600000F0226A216860EF00F01F50225CD8A4E2
:1001700060EF00F0226AA5EC00F0216A60EF00F069
:10018000122A140E125CD8B4C7EC00F0120013C08F
:1001900015F0898452EC04F0010E155CD8B4D8EF48
:1001A00000F0150649EC04F01506D8A4D2EF00F0D3
:1001B0008994126A12001BB0110011B011000A2AB2
:1001C000D8B0092AE50E095CD8A41100B00E0A5C6B
:1001D000D8A41100010E0B6E89861DEC00F00C2ACC
:1001E000D8B00D2A010E0D5CD8A41100F40E0C5CE1
:1001F000D8A4110089761DEC00F011000F2AD8B0A8
:10020000102A030E105CD8A41200E80E0F5CD8A4CC
:10021000120005A0120011B012001B681200040E9B
:10022000065CD8A88996D8B88986120005682AEC99
:1002300004F02EEF01F0056A2EEC04F02EEF01F031
:100240003AEC04F081B0120011B02EEF01F012EC84
:1002500000F005A016EF01F01BEF01F081A02EEFDA
:1002600001F03AEC04F00FEC01F012001168A7EC79
:1002700001F0A3EC01F016EC00F01A6A26EC04F091
:1002800067EF01F0116A2AEC04F00568000E1A5CB1
:10029000D8A493EC01F067EF01F03AEC04F081B2DE
:1002A000120005A0120012EC00F019EC00F00FECA7
:1002B00001F081A259EF01F03AEC04F00E6A1BB094
:1002C00068EF01F011A036EF01F042EF01F01200EB
:1002D000000E1A5CD8A467EF01F01B6A2AEC04F048
:1002E00067EF01F03AEC04F081B4120011A08DEF39
:1002F00001F01A2A1F0E1A5CD8B498EF01F0010E13
:100300001A5CD8A493EC01F006C0EEFF13C0EEFF18
:10031000897816EC00F012EC00F081A48DEF01F06A
:100320003AEC04F0120018C0EEFF19C0EEFF120004
:1003300093EC01F01A06116A12EC00F005682AEC41
:1003400004F08DEF01F0E96A010EEA6E1200A3ECF1
:1003500001F0076A072AEE6AD8A6AAEF01F0120098
:10036000600ED36E9B8C1200928092829294929631
:1003700093809382938493969398939C939E946A8C
:10038000956A969096929694F19E9298899812000A
:10039000370E006E750E016E0D0E026E7D0E036E31
:1003A0000568899603C08CFF2AEC04F012EC00F07B
:1003B000040E066E050E136E0B6A046A0E6A116A4D
:1003C000126A16EC00F01A6A226A216889948A8CF3
:1003D0008A9E36EC04F08B888B8A12000D0EC16E5B
:1003E000C06A010EC26E1200D09EC00EF26E1200E4
:1003F0008F0ED56EF28A1200B0EC01F0B4EC01F071
:10040000C8EC01F0EEEC01F0F4EC01F0F8EC01F0D6
:100410001BB08BEF03F081A020EC01F081A24DEC2A
:1004200001F081A472EC01F0BBEC02F005A008EF32
:1004300002F0C29461EC04F086EC03F08B0EC45C15
:10044000D8B825EF02F036EF02F0270EC45CD8B81A
:1004500045EF02F04E0EC45CD8B859EF02F0750EAD
:10046000C45CD8B86AEF02F07BEF02F0B20EC45C55
:10047000D8B88BEF02F0D90EC45CD8B89BEF02F06D
:10048000FF0EC45CD8B8ABEF02F004A0ABEF02F0F3
:10049000010E065CD8B408EF02F0010E066E12ECF5
:1004A00000F000C08CFF0BA08986010E046E08EFDF
:1004B00002F0020E065CD8B408EF02F0020E066EDF
:1004C00012EC00F001C08CFF0BA08986010E046EB7
:1004D00008EF02F0030E065CD8B408EF02F0030E3A
:1004E000066E12EC00F002C08CFF0BA08986010E94
:1004F000046E08EF02F0040E065CD8B408EF02F0B8
:10050000040E066E12EC00F003C08CFF0BA089965F
:10051000046A08EF02F0050E065CD8B408EF02F09A
:10052000050E066E12EC00F002C08CFF0BA089963F
:10053000046A08EF02F0060E065CD8B408EF02F079
:10054000060E066E12EC00F001C08CFF0BA089961F
:10055000046A08EF02F0070E065CD8B408EF02F058
:10056000070E066E12EC00F000C08CFF0BA08996FF
:10057000046A08EF02F0C28461EC04F086EC03F038
:10058000890EC45CD8B8C7EF02F0DDEF02F00B0EA5
:10059000C45CD8B8F4EF02F02F0EC45CD8B807EFF3
:1005A00003F0530EC45CD8B81AEF03F0770EC45CA6
:1005B000D8B82AEF03F03AEF03F0AD0EC45CD8B818
:1005C0004AEF03F0D10EC45CD8B859EF03F0F50E32
:1005D000C45CD8B868EF03F0FF0EC45CD8B877EFFE
:1005E00003F0F4EF02F0120014A077EF03F0010E15
:1005F000135CD8B4F3EF02F0010E136E12EC00F0AE
:1006000036EC04F08B80010E146EF3EF02F014A0B0
:1006100077EF03F0020E135CD8B4F3EF02F0020E92
:10062000136E12EC00F036EC04F08B82010E146EA7
:10063000F3EF02F0030E135CD8B4F3EF02F0030EF5
:10064000136E12EC00F036EC04F08B84010E146E85
:10065000F3EF02F0040E135CD8B4F3EF02F0040ED3
:10066000136E12EC00F036EC04F08B86010E146E63
:10067000F3EF02F0050E135CD8B4F3EF02F0050EB1
:10068000136E12EC00F036EC04F08B888B8A146A3F
:10069000F3EF02F0060E135CD8B4F3EF02F0060E8F
:1006A000136E12EC00F036EC04F08B8C146AF3EF4E
:1006B00002F0070E135CD8B4F3EF02F0070E136ECE
:1006C00012EC00F036EC04F08B8E146AF3EF02F0BB
:1006D000080E135CD8B4F3EF02F0080E136E12ECA0
:1006E00000F036EC04F08A86146AF3EF02F0090E8B
:1006F000135CD8B4F3EF02F0090E136E12EC00F0A5
:1007000036EC04F08A88146AF3EF02F0C282C2B2B7
:1007100087EF03F0120032EC04F0A3EC01F01AC0F2
:1007200023F0000E235CD8B4ACEF03F0EECF06F05C
:10073000EECF13F0EECF1DF0EECF1EF0B4EC03F0D1
:10074000FBEC03F0897816EC00F01C681CB0A6EFF7
:1007500003F0230691EF03F01B6A2AEC04F005680E
:1007600012EC00F008EF02F0010E065CD8B4D8ECF1
:1007700003F0020E065CD8B4DDEC03F0030E065C59
:10078000D8B4E2EC03F0040E065CD8B4E7EC03F056
:10079000050E065CD8B4ECEC03F0060E065CD8B48B
:1007A000F1EC03F0070E065CD8B4F6EC03F012008F
:1007B00000C08CFF89860468120001C08CFF898606
:1007C0000468120002C08CFF89860468120003C00E
:1007D0008CFF8996046A120002C08CFF8996046A15
:1007E000120001C08CFF8996046A120000C08CFFC1
:1007F0008996046A120036EC04F0010E135CD8B43A
:100800008B80020E135CD8B48B82030E135CD8B4B9
:100810008B84040E135CD8B48B86050E135CD8B49D
:1008200023EC04F0060E135CD8B48B8C070E135C1B
:10083000D8B48B8E080E135CD8B48A86090E135C6C
:10084000D8B48A8812008B888B8A12008D808D9292
:100850008D9412008D908D828D9412008D908D92CA
:100860008D8412008D808D828D8412008B6A8A9611
:100870008A981200010E076EB20E086E072AD8A0E1
:100880003EEF04F0010E076E082AD8A03EEF04F0F8
:100890001200240E166E00000000162AD8A04DEF9C
:1008A00004F01200000E166EFE0E176E162AD8A067
:1008B00056EF04F0000E166E172AD8A056EF04F07B
:1008C0001200D00E076E00000000072AD8A065EFC6
:0408D00004F012001E
:020000040030CA
:0100010008F6
:010003001EDE
:010005008179
:00000001FF
