:020000040000FA
:04000000D2EF00F04B
:020004000000FA
:040008001DEF00F0F8
:080018001100F00ED76E600E1E
:10002000D66E1200116A096A106A1200142A166A42
:10003000156A1200136A126A1200F2A41100F294F7
:100040000DEC00F02CEC00F014B056EC00F011A018
:1000500037EF00F047EF00F0182A140E185CD8B400
:1000600033EC00F0120019C021F0186A1200102AB7
:10007000D8B0092AEA0E095CD8A41100600E105C01
:10008000D8A41100010E116E89861AEC00F0122A14
:10009000D8B0132A010E135CD8A41100F40E125C20
:1000A000D8A4110089761AEC00F01100152AD8B0F6
:1000B000162A030E165CD8A41200E80E155CD8A40C
:1000C000120005A01200176A89781200040E065C5F
:1000D000D8A88996D8B88986120005687CEF00F008
:1000E000056A7CEF00F03DEC02F012EC00F005A098
:1000F0006DEF00F070EF00F081A07CEF00F03DECC0
:1001000002F066EC00F01200176895EF00F0176A35
:1001100095EF00F03DEC02F012EC00F016EC00F070
:1001200017A084EF00F087EF00F081A295EF00F0B8
:100130003DEC02F0146A66EC00F01200600ED36E23
:100140009B8C1200956A9280928292949380938203
:100150009296F19E92981200370E006E750E016E07
:100160000D0E026E7D0E036E0568899612EC00F08E
:10017000040E066E050E196E116A046A8998146AD7
:10018000176A186A899412000D0EC16EC06A010EBA
:10019000C26E1200D09EC00EF26E12008F0ED56E8F
:1001A000F28A12009EEC00F0A2EC00F0ACEC00F041
:1001B000C4EC00F0CAEC00F0CEEC00F081A073ECCF
:1001C00000F081A28AEC00F089EC01F005A0DEEFDE
:1001D00000F0C29438EC02F08B0EC45CD8B8F3EF98
:1001E00000F004EF01F0270EC45CD8B813EF01F063
:1001F0004E0EC45CD8B827EF01F0750EC45CD8B8B9
:1002000038EF01F049EF01F0B20EC45CD8B859EFF5
:1002100001F0D90EC45CD8B869EF01F0FF0EC45CE0
:10022000D8B879EF01F004A079EF01F0010E065C77
:10023000D8B4DEEF00F0010E066E12EC00F000C044
:100240008CFF11A08986010E046EDEEF00F0020E15
:10025000065CD8B4DEEF00F0020E066E12EC00F081
:1002600001C08CFF11A08986010E046EDEEF00F044
:10027000030E065CD8B4DEEF00F0030E066E12EC3F
:1002800000F002C08CFF11A08986010E046EDEEF23
:1002900000F0040E065CD8B4DEEF00F0040E066E2B
:1002A00012EC00F003C08CFF11A08996046ADEEF07
:1002B00000F0050E065CD8B4DEEF00F0050E066E09
:1002C00012EC00F002C08CFF11A08996046ADEEFE8
:1002D00000F0060E065CD8B4DEEF00F0060E066EE7
:1002E00012EC00F001C08CFF11A08996046ADEEFC9
:1002F00000F0070E065CD8B4DEEF00F0070E066EC5
:1003000012EC00F000C08CFF11A08996046ADEEFA9
:1003100000F0C28438EC02F0890EC45CD8B893EFC8
:1003200001F0A9EF01F00B0EC45CD8B8C0EF01F0EA
:100330002F0EC45CD8B8D0EF01F0530EC45CD8B80F
:10034000E0EF01F0770EC45CD8B8EDEF01F0FAEF02
:1003500001F0AD0EC45CD8B807EF02F0D10EC45C5A
:10036000D8B813EF02F0F50EC45CD8B81FEF02F056
:10037000FF0EC45CD8B82BEF02F0C0EF01F0120002
:1003800020A02BEF02F0010E195CD8B4BFEF01F0F2
:10039000010E196E12EC00F0010E206EBFEF01F09D
:1003A00020A02BEF02F0020E195CD8B4BFEF01F0D1
:1003B000020E196E12EC00F0010E206EBFEF01F07C
:1003C000030E195CD8B4BFEF01F0030E196E12ECE6
:1003D00000F0010E206EBFEF01F0040E195CD8B4DE
:1003E000BFEF01F0040E196E12EC00F0010E206E4A
:1003F000BFEF01F0050E195CD8B4BFEF01F0050E98
:10040000196E12EC00F08998206ABFEF01F0060E19
:10041000195CD8B4BFEF01F0060E196E12EC00F0B3
:10042000206ABFEF01F0070E195CD8B4BFEF01F0EE
:10043000070E196E12EC00F0206ABFEF01F0080EF3
:10044000195CD8B4BFEF01F0080E196E12EC00F081
:10045000206ABFEF01F0090E195CD8B4BFEF01F0BC
:10046000090E196E12EC00F08988206ABFEF01F0C6
:10047000C282C2B239EF02F01200010E076EB20E54
:10048000086E072AD8A041EF02F0010E076E082A75
:10049000D8A041EF02F01200240E226E00000000EE
:0A04A000222AD8A050EF02F012004B
:020000040030CA
:0100010008F6
:010003001EDE
:010005008179
:00000001FF
