:020000040000FA
:0400000054EF01F0C8
:020004000000FA
:0400080020EF00F0F5
:080018001100F00ED76E600E1E
:10002000D66E1200116A096A106A1200096A106A13
:100030001200142A166A156A1200136A126A120054
:10004000F2A41100F2940DEC00F051EC00F028B095
:1000500035EC00F017B042EC00F014B093EC00F077
:1000600011A072EF00F084EF00F0242AD8B0252A06
:100070003052255CD8A412002952245CD8A4120066
:10008000286A1200242AD8B0252AEA0E255CD8A4B2
:100090001200600E245CD8A41200176A16EC00F05F
:1000A0001200182A140E185CD8B458EC00F0120094
:1000B00019C021F089848A888A868A8A84EC03F0B0
:1000C000010E215CD8B46CEF00F021067BEC03F04C
:1000D0002106D8A466EF00F089948A988A968A9AB5
:1000E000186A120027B01100102AD8B0092AEA0EA7
:1000F000095CD8A41100600E105CD8A41100010E98
:10010000116E89861DEC00F0122AD8B0132A010E58
:10011000135CD8A41100F40E125CD8A411008976E7
:100120001DEC00F01100152AD8B0162A030E165C3B
:10013000D8A41200E80E155CD8A4120005A0120085
:1001400017B01200010E276E1200040E065CD8A82C
:100150008996D8B889861200056860EC03F0BFEF75
:1001600000F0056A64EC03F0BFEF00F06CEC03F004
:1001700012EC00F005A0ACEF00F0B1EF00F081A0B0
:10018000BFEF00F06CEC03F0A5EC00F01200176874
:1001900006EC01F0266A5CEC03F0DFEF00F0176A72
:1001A00060EC03F0DFEF00F06CEC03F012EC00F019
:1001B00019EC00F017A0C7EF00F0CFEF00F081A21C
:1001C000DFEF00F06CEC03F0146AA5EC00F0120015
:1001D0006CEC03F017A0FCEF00F0262A06C0EEFF3F
:1001E00019C0EEFF24C0EEFF25C0EEFF16EC00F0B4
:1001F0001E0E265CD8B4176A81A4FCEF00F06CECEC
:1002000003F01200010EEA6EE96A120002EC01F03E
:10021000076A072AEE6AD8A609EF01F01200600EFD
:10022000D36E9B8C120092809282929693809382DE
:10023000938493969398939A939C939E946A956AC9
:10024000969096929694F19E929892941200370E00
:10025000006E750E016E0D0E026E7D0E036E05684A
:10026000899603C08CFF60EC03F012EC00F0040EE2
:10027000066E050E196E116A046A8998146A176A67
:10028000186A16EC00F0266A8A9A12000D0EC16EEA
:10029000C06A010EC26E1200D09EC00EF26E120035
:1002A0008F0ED56EF28A12000FEC01F013EC01F004
:1002B00027EC01F046EC01F04CEC01F050EC01F0C1
:1002C00027B0DFEF02F081A0B6EC00F081A2D4EC01
:1002D00000F081A4E8EC00F011EC02F005A060EF62
:1002E00001F0C294DAEC02F08B0EC45CD8B87BEF5C
:1002F00001F08CEF01F0270EC45CD8B89BEF01F041
:100300004E0EC45CD8B8AFEF01F0750EC45CD8B81F
:10031000C0EF01F0D1EF01F0B20EC45CD8B8E1EF4C
:1003200001F0D90EC45CD8B8F1EF01F0FF0EC45C47
:10033000D8B801EF02F004A001EF02F0010E065C54
:10034000D8B460EF01F0010E066E12EC00F000C0B0
:100350008CFF11A08986010E046E60EF01F0020E81
:10036000065CD8B460EF01F0020E066E12EC00F0ED
:1003700001C08CFF11A08986010E046E60EF01F0B0
:10038000030E065CD8B460EF01F0030E066E12ECAB
:1003900000F002C08CFF11A08986010E046E60EF90
:1003A00001F0040E065CD8B460EF01F0040E066E96
:1003B00012EC00F003C08CFF11A08996046A60EF74
:1003C00001F0050E065CD8B460EF01F0050E066E74
:1003D00012EC00F002C08CFF11A08996046A60EF55
:1003E00001F0060E065CD8B460EF01F0060E066E52
:1003F00012EC00F001C08CFF11A08996046A60EF36
:1004000001F0070E065CD8B460EF01F0070E066E2F
:1004100012EC00F000C08CFF11A08996046A60EF16
:1004200001F0C284DAEC02F0890EC45CD8B81BEF8C
:1004300002F031EF02F00B0EC45CD8B848EF02F0C6
:100440002F0EC45CD8B85AEF02F0530EC45CD8B873
:100450006DEF02F0770EC45CD8B87DEF02F08EEF3E
:1004600002F0AD0EC45CD8B89EEF02F0D10EC45CB1
:10047000D8B8AEEF02F0F50EC45CD8B8BDEF02F00C
:10048000FF0EC45CD8B8CCEF02F048EF02F01200C7
:1004900020A0CCEF02F0010E195CD8B447EF02F0B7
:1004A000010E196E12EC00F08B808B92010E206E03
:1004B00047EF02F020A0CCEF02F0020E195CD8B496
:1004C00047EF02F0020E196E12EC00F08B908B8257
:1004D0008B94010E206E47EF02F0030E195CD8B426
:1004E00047EF02F0030E196E12EC00F08B928B8432
:1004F0008B96010E206E47EF02F0040E195CD8B403
:1005000047EF02F0040E196E12EC00F08B948B860C
:100510008B988B9A010E206E47EF02F0050E195C46
:10052000D8B447EF02F0050E196E12EC00F08B966E
:100530008B888B8A8B9C206A47EF02F0060E195C31
:10054000D8B447EF02F0060E196E12EC00F08B984B
:100550008B9A8B8C8B9E206A47EF02F0070E195CFA
:10056000D8B447EF02F0070E196E12EC00F08B9C26
:100570008B8E8A96206A47EF02F0080E195CD8B479
:1005800047EF02F0080E196E12EC00F08B9E8A867F
:100590008A98206A47EF02F0090E195CD8B447EF39
:1005A00002F0090E196E12EC00F08A968A88206A11
:1005B00047EF02F0C282C2B2DBEF02F0120068EC39
:1005C00003F0000E265CD8A4FBEF02F0EECF06F09D
:1005D000EECF19F0EECF29F0EECF30F000EC03F0C3
:1005E00030EC03F016EC00F0282A28B0F5EF02F00A
:1005F0002606DFEF02F0276A60EC03F060EF01F0FF
:10060000010E065CD8B424EC03F0020E065CD8B4EC
:1006100028EC03F0030E065CD8B42CEC03F0040EB7
:10062000065CD8B403C08CFF050E065CD8B402C0CB
:100630008CFF060E065CD8B401C08CFF070E065C6A
:10064000D8B400C08CFF120000C08CFF8986120055
:1006500001C08CFF8986120002C08CFF89861200BF
:100660008B6A8A968A98010E195CD8B48B80020E28
:10067000195CD8B48B82030E195CD8B48B84040E39
:10068000195CD8B48B86050E195CD8B459EC03F00C
:10069000060E195CD8B48B8C070E195CD8B48B8EFF
:1006A000080E195CD8B48A86090E195CD8B48A88F9
:1006B00012008B888B8A12008D908D928D8412008F
:1006C0008D908D828D9412008D808D928D9412006C
:1006D0008D808D828D841200010E076EB20E086E21
:1006E000072AD8A070EF03F0010E076E082AD8A0E1
:1006F00070EF03F01200240E226E00000000222A88
:10070000D8A07FEF03F01200000E226EFE0E236EC3
:10071000222AD8A088EF03F0000E226E232AD8A048
:0607200088EF03F0120057
:020000040030CA
:0100010008F6
:010003001EDE
:010005008179
:00000001FF
