:020000040000FA
:0400000060EF00F0BD
:020004000000FA
:0400080012EF00F003
:080018001100F00ED76E600E1E
:10002000D66E1200F2A41100F2940DEC00F0082A32
:10003000D8B0072AEA0E075CD8A41100600E085C4D
:10004000D8A4110089861200010E046E898634EF4F
:1000500000F0046A899634EF00F0ABEC00F004A0E5
:1000600024EF00F029EF00F081A034EF00F0ABECBA
:1000700000F01200600ED36E9B8C1200956A928085
:1000800093809296F19E1200370E006E750E016EEF
:100090000D0E026E7D0E036E010E046E8996076AC8
:1000A000086A12000E0EC16EC06A010EC26E120006
:1000B000D09EC00EF26E12008F0ED56EF28A120024
:1000C0003AEC00F03EEC00F044EC00F052EC00F0B2
:1000D00058EC00F05CEC00F081A02DEC00F004A0E6
:1000E0006CEF00F0C282C2B273EF00F08B0EC45C02
:1000F000D8B87DEF00F08FEF00F0270EC45CD8B8C1
:100100009BEF00F04E0EC45CD8B89FEF00F0750E68
:10011000C45CD8B8A3EF00F08B0EA7EF00F0B20ECE
:10012000C45CD8B8A3EF00F0D90EC45CD8B89FEF78
:1001300000F09BEF00F000C08CFF6CEF00F001C0FE
:100140008CFF6CEF00F002C08CFF6CEF00F003C07E
:100150008CFF6CEF00F0010E056EB20E066E052AE4
:10016000D8A0AFEF00F0010E056E062AD8A0AFEFC1
:0401700000F0120089
:020000040030CA
:0100010008F6
:010003001EDE
:010005008179
:00000001FF
