:020000040000FA
:04000000F7EF01F025
:020004000000FA
:0400080020EF00F0F5
:080018001100F00ED76E600E1E
:10002000D66E12000B6A096A0A6A1200196A186A07
:1000300012000E68106A0F6A12000D6A0C6A120034
:10004000F2A41100F2940DEC00F058EC00F0C0ECBA
:1000500000F01CB037EC00F011B044EC00F00EB032
:10006000FEEC00F00BA0DBEF00F0EFEF00F0182A41
:10007000D8B0192A1E50195CD8A412001D50185C63
:10008000D8A412001C6A1200182AD8B0192AE50E4A
:10009000195CD8A41200B00E185CD8A4120090EC21
:1000A00001F0116A12EC00F005681EEC04F0120079
:1000B00061EF00F0222A21B0B5EF00F0AAEF00F0C6
:1000C0001200010E065CD8B490EF00F0020E065C40
:1000D000D8B48AEF00F0030E065CD8B484EF00F0C9
:1000E000040E065CD8B494EF00F0050E065CD8B49C
:1000F00084EF00F0060E065CD8B48AEF00F0070E1D
:10010000065CD8B490EF00F0010E1F6E040E206E56
:100110005AEF00F0020E1F6E030E206E5AEF00F031
:1001200098EC00F060EF00F08A9C8A9E60EF00F08F
:1001300004A09FEC00F004B0A2EC00F012008A8C46
:100140008A9E12008A9C8A8E120004A08A9C04B0A7
:100150008A9E12002050225CD8A460EF00F098EC38
:1001600000F0226A216860EF00F01F50225CD8A4E2
:1001700060EF00F0226AA5EC00F0216A60EF00F069
:10018000122A140E125CD8B4C7EC00F0120013C08F
:1001900015F0898446EC04F0010E155CD8B4D8EF54
:1001A00000F015063DEC04F01506D8A4D2EF00F0DF
:1001B0008994126A12001BB0110011B011000A2AB2
:1001C000D8B0092AE50E095CD8A41100B00E0A5C6B
:1001D000D8A41100010E0B6E89861DEC00F00C2ACC
:1001E000D8B00D2A010E0D5CD8A41100F40E0C5CE1
:1001F000D8A4110089761DEC00F011000F2AD8B0A8
:10020000102A030E105CD8A41200E80E0F5CD8A4CC
:10021000120005A0120011B012001B6826EC04F0B9
:10022000A0EC01F01200040E065CD8A88996D8B89C
:100230008986120005681EEC04F030EF01F0056AB3
:1002400022EC04F030EF01F02EEC04F011B030EFAE
:1002500001F012EC00F005A01AEF01F01FEF01F021
:1002600081A030EF01F02EEC04F013EC01F012004D
:100270001168A4EC01F0A0EC01F016EC00F01A6A91
:100280001AEC04F067EF01F0116A1EEC04F0056847
:10029000000E1A5CD8A490EC01F067EF01F02EEC90
:1002A00004F005A0120012EC00F019EC00F013ECC1
:1002B00001F081A259EF01F02EEC04F00E6A1BB0A0
:1002C00068EF01F011A038EF01F044EF01F01200E7
:1002D000000E1A5CD8A467EF01F01B6A1EEC04F054
:1002E00067EF01F02EEC04F011A08AEF01F01A2A5A
:1002F0001F0E1A5CD8B495EF01F0010E1A5CD8A459
:1003000090EC01F006C0EEFF13C0EEFF16EC00F01B
:1003100012EC00F081A48AEF01F02EEC04F0120040
:1003200018C0EEFF19C0EEFF120090EC01F01A06A3
:10033000116A12EC00F005681EEC04F08AEF01F07F
:10034000E96A010EEA6E1200A0EC01F0076A072AC2
:10035000EE6AD8A6A7EF01F01200600ED36E9B8C58
:1003600012009280928292949296938093829384C8
:1003700093969398939C939E946A956A969096927E
:100380009694F19E1200370E006E750E016E0D0EE2
:10039000026E7D0E036E0568899603C08CFF1EEC0D
:1003A00004F012EC00F0040E066E050E136E0B6ADC
:1003B000046A0E6A116A126A16EC00F01A6A226A5E
:1003C000216889948A8C8A9E2AEC04F08B888B8A17
:1003D00012000D0EC16EC06A010EC26E1200D09ED8
:1003E000C00EF26E12008F0ED56EF28A1200ADECC6
:1003F00001F0B1EC01F0C3EC01F0E9EC01F0EFEC3D
:1004000001F0F3EC01F01BB086EF03F081A024ECC7
:1004100001F081A24FEC01F081A472EC01F0B6EC86
:1004200002F005A003EF02F0C29455EC04F081EC59
:1004300003F08B0EC45CD8B820EF02F031EF02F06D
:10044000270EC45CD8B840EF02F04E0EC45CD8B89A
:1004500054EF02F0750EC45CD8B865EF02F076EF89
:1004600002F0B20EC45CD8B886EF02F0D90EC45CBC
:10047000D8B896EF02F0FF0EC45CD8B8A6EF02F031
:1004800004A0A6EF02F0010E065CD8B403EF02F060
:10049000010E066E12EC00F000C08CFF0BA08986E6
:1004A000010E046E03EF02F0020E065CD8B403EFF7
:1004B00002F0020E066E12EC00F001C08CFF0BA0E1
:1004C0008986010E046E03EF02F0030E065CD8B4B9
:1004D00003EF02F0030E066E12EC00F002C08CFF78
:1004E0000BA08986010E046E03EF02F0040E065C79
:1004F000D8B403EF02F0040E066E12EC00F003C055
:100500008CFF0BA08996046A03EF02F0050E065CCF
:10051000D8B403EF02F0050E066E12EC00F002C034
:100520008CFF0BA08996046A03EF02F0060E065CAE
:10053000D8B403EF02F0060E066E12EC00F001C014
:100540008CFF0BA08996046A03EF02F0070E065C8D
:10055000D8B403EF02F0070E066E12EC00F000C0F4
:100560008CFF0BA08996046A03EF02F0C28455EC5D
:1005700004F081EC03F0890EC45CD8B8C2EF02F03D
:10058000D8EF02F00B0EC45CD8B8EFEF02F02F0EDC
:10059000C45CD8B802EF03F0530EC45CD8B815EFB2
:1005A00003F0770EC45CD8B825EF03F035EF03F005
:1005B000AD0EC45CD8B845EF03F0D10EC45CD8B81A
:1005C00054EF03F0F50EC45CD8B863EF03F0FF0EF0
:1005D000C45CD8B872EF03F0EFEF02F0120014A081
:1005E00072EF03F0010E135CD8B4EEEF02F0010ECF
:1005F000136E12EC00F02AEC04F08B80010E146EE6
:10060000EEEF02F014A072EF03F0020E135CD8B408
:10061000EEEF02F0020E136E12EC00F02AEC04F082
:100620008B82010E146EEEEF02F0030E135CD8B451
:10063000EEEF02F0030E136E12EC00F02AEC04F061
:100640008B84010E146EEEEF02F0040E135CD8B42E
:10065000EEEF02F0040E136E12EC00F02AEC04F040
:100660008B86010E146EEEEF02F0050E135CD8B40B
:10067000EEEF02F0050E136E12EC00F02AEC04F01F
:100680008B888B8A146AEEEF02F0060E135CD8B4E6
:10069000EEEF02F0060E136E12EC00F02AEC04F0FE
:1006A0008B8C146AEEEF02F0070E135CD8B4EEEFF9
:1006B00002F0070E136E12EC00F02AEC04F08B8EA1
:1006C000146AEEEF02F0080E135CD8B4EEEF02F0FD
:1006D000080E136E12EC00F02AEC04F08A86146AFD
:1006E000EEEF02F0090E135CD8B4EEEF02F0090E43
:1006F000136E12EC00F02AEC04F08A88146AEEEF14
:1007000002F0C282C2B282EF03F01200000E1A5C45
:10071000D8B4A0EF03F0EECF06F0EECF13F0EECF9B
:100720001DF0EECF1EF0A8EC03F0EFEC03F016EC9A
:1007300000F01C681CB09AEF03F01A0686EF03F075
:100740001B6A1EEC04F0056812EC00F003EF02F0E7
:10075000010E065CD8B4CCEC03F0020E065CD8B4F3
:10076000D1EC03F0030E065CD8B4D6EC03F0040E13
:10077000065CD8B4DBEC03F0050E065CD8B4E0EC04
:1007800003F0060E065CD8B4E5EC03F0070E065C39
:10079000D8B4EAEC03F0120000C08CFF898604682C
:1007A000120001C08CFF89860468120002C08CFF11
:1007B00089860468120003C08CFF8996046A1200BF
:1007C00002C08CFF8996046A120001C08CFF8996D2
:1007D000046A120000C08CFF8996046A12002AEC99
:1007E00004F0010E135CD8B48B80020E135CD8B4F5
:1007F0008B82030E135CD8B48B84040E135CD8B4C4
:100800008B86050E135CD8B417EC04F0060E135C4F
:10081000D8B48B8C070E135CD8B48B8E080E135C87
:10082000D8B48A86090E135CD8B48A8812008B88E3
:100830008B8A12008D808D928D9412008D908D8206
:100840008D9412008D908D928D8412008D808D82FA
:100850008D8412008B6A8A968A981200010E076EA8
:10086000B20E086E072AD8A032EF04F0010E076E10
:10087000082AD8A032EF04F01200240E166E0000F1
:100880000000162AD8A041EF04F01200000E166EE8
:10089000FE0E176E162AD8A04AEF04F0000E166E50
:1008A000172AD8A04AEF04F01200D00E076E0000FD
:0C08B0000000072AD8A059EF04F0120045
:020000040030CA
:0100010008F6
:010003001EDE
:010005008179
:00000001FF
