:020000040000FA
:04000000F0EF01F02C
:020004000000FA
:0400080020EF00F0F5
:080018001100F00ED76E600E1E
:10002000D66E12000B6A096A0A6A1200196A186A07
:1000300012000E68106A0F6A12000D6A0C6A120034
:10004000F2A41100F2940DEC00F058EC00F0C0ECBA
:1000500000F01CB037EC00F011B044EC00F00EB032
:10006000FEEC00F00BA0DBEF00F0EFEF00F0182A41
:10007000D8B0192A1E50195CD8A412001D50185C63
:10008000D8A412001C6A1200182AD8B0192AE50E4A
:10009000195CD8A41200B00E185CD8A4120089EC28
:1000A00001F0116A12EC00F0056817EC04F0120080
:1000B00061EF00F0222A21B0B5EF00F0AAEF00F0C6
:1000C0001200010E065CD8B490EF00F0020E065C40
:1000D000D8B48AEF00F0030E065CD8B484EF00F0C9
:1000E000040E065CD8B494EF00F0050E065CD8B49C
:1000F00084EF00F0060E065CD8B48AEF00F0070E1D
:10010000065CD8B490EF00F0010E1F6E040E206E56
:100110005AEF00F0020E1F6E030E206E5AEF00F031
:1001200098EC00F060EF00F08A9C8A9E60EF00F08F
:1001300004A09FEC00F004B0A2EC00F012008A8C46
:100140008A9E12008A9C8A8E120004A08A9C04B0A7
:100150008A9E12002050225CD8A460EF00F098EC38
:1001600000F0226A216860EF00F01F50225CD8A4E2
:1001700060EF00F0226AA5EC00F0216A60EF00F069
:10018000122A140E125CD8B4C7EC00F0120013C08F
:1001900015F089843FEC04F0010E155CD8B4D8EF5B
:1001A00000F0150636EC04F01506D8A4D2EF00F0E6
:1001B0008994126A12001BB0110011B011000A2AB2
:1001C000D8B0092AE50E095CD8A41100B00E0A5C6B
:1001D000D8A41100010E0B6E89861DEC00F00C2ACC
:1001E000D8B00D2A010E0D5CD8A41100F40E0C5CE1
:1001F000D8A4110089761DEC00F011000F2AD8B0A8
:10020000102A030E105CD8A41200E80E0F5CD8A4CC
:10021000120005A0120011B01200000E1A5CD8B432
:1002200012001B681FEC04F099EC01F01200040EA0
:10023000065CD8A88996D8B889861200056817EC9C
:1002400004F034EF01F0056A1BEC04F034EF01F028
:1002500027EC04F011B034EF01F012EC00F005A02F
:100260001EEF01F023EF01F081A034EF01F027EC45
:1002700004F017EC01F0120011689DEC01F099EC0C
:1002800001F016EC00F01A6A13EC04F06AEF01F0CA
:10029000116A17EC04F00568000E1A5CD8A489EC0A
:1002A00001F06AEF01F027EC04F005A0120012EC57
:1002B00000F019EC00F017EC01F081A25DEF01F005
:1002C00027EC04F00E6A1BB0120011A03CEF01F005
:1002D00048EF01F0120027EC04F011A083EF01F0C9
:1002E0001A2A1F0E1A5CD8B48EEF01F0010E1A5CA8
:1002F000D8A489EC01F006C0EEFF13C0EEFF16ECA7
:1003000000F012EC00F081A483EF01F027EC04F080
:10031000120018C0EEFF19C0EEFF120089EC01F0C8
:100320001A06116A12EC00F0056817EC04F083EF6E
:1003300001F0E96A010EEA6E120099EC01F0076A19
:10034000072AEE6AD8A6A0EF01F01200600ED36E65
:100350009B8C1200928092829294929693809382C8
:10036000938493969398939C939E946A956A96909F
:1003700096929694F19E1200370E006E750E016EE5
:100380000D0E026E7D0E036E0568899603C08CFF0C
:1003900017EC04F012EC00F0040E066E050E136E5E
:1003A0000B6A046A0E6A116A126A16EC00F01A6A85
:1003B000226A216889948A8C8A9E23EC04F08B88B7
:1003C0008B8A12000D0EC16EC06A010EC26E120041
:1003D000D09EC00EF26E12008F0ED56EF28A120001
:1003E000A6EC01F0AAEC01F0BCEC01F0E2EC01F0AB
:1003F000E8EC01F0ECEC01F01BB07FEF03F081A022
:1004000028EC01F081A253EC01F081A46BEC01F027
:10041000AFEC02F005A0FCEF01F0C2944EEC04F04A
:100420007AEC03F08B0EC45CD8B819EF02F02AEF17
:1004300002F0270EC45CD8B839EF02F04E0EC45C4F
:10044000D8B84DEF02F0750EC45CD8B85EEF02F07C
:100450006FEF02F0B20EC45CD8B87FEF02F0D90E95
:10046000C45CD8B88FEF02F0FF0EC45CD8B89FEF21
:1004700002F004A09FEF02F0010E065CD8B4FCEF7E
:1004800001F0010E066E12EC00F000C08CFF0BA014
:100490008986010E046EFCEF01F0020E065CD8B4F2
:1004A000FCEF01F0020E066E12EC00F001C08CFFB2
:1004B0000BA08986010E046EFCEF01F0030E065CB2
:1004C000D8B4FCEF01F0030E066E12EC00F002C08F
:1004D0008CFF0BA08986010E046EFCEF01F0040E68
:1004E000065CD8B4FCEF01F0040E066E12EC00F0CE
:1004F00003C08CFF0BA08996046AFCEF01F0050E87
:10050000065CD8B4FCEF01F0050E066E12EC00F0AC
:1005100002C08CFF0BA08996046AFCEF01F0060E66
:10052000065CD8B4FCEF01F0060E066E12EC00F08B
:1005300001C08CFF0BA08996046AFCEF01F0070E46
:10054000065CD8B4FCEF01F0070E066E12EC00F06A
:1005500000C08CFF0BA08996046AFCEF01F0C284F6
:100560004EEC04F07AEC03F0890EC45CD8B8BBEF13
:1005700002F0D1EF02F00B0EC45CD8B8E8EF02F045
:100580002F0EC45CD8B8FBEF02F0530EC45CD8B891
:100590000EEF03F0770EC45CD8B81EEF03F02EEF19
:1005A00003F0AD0EC45CD8B83EEF03F0D10EC45CCE
:1005B000D8B84DEF03F0F50EC45CD8B85CEF03F08B
:1005C000FF0EC45CD8B86BEF03F0E8EF02F0120046
:1005D00014A06BEF03F0010E135CD8B4E7EF02F048
:1005E000010E136E12EC00F023EC04F08B80010E70
:1005F000146EE7EF02F014A06BEF03F0020E135C31
:10060000D8B4E7EF02F0020E136E12EC00F023EC08
:1006100004F08B82010E146EE7EF02F0030E135C00
:10062000D8B4E7EF02F0030E136E12EC00F023ECE7
:1006300004F08B84010E146EE7EF02F0040E135CDD
:10064000D8B4E7EF02F0040E136E12EC00F023ECC6
:1006500004F08B86010E146EE7EF02F0050E135CBA
:10066000D8B4E7EF02F0050E136E12EC00F023ECA5
:1006700004F08B888B8A146AE7EF02F0060E135C95
:10068000D8B4E7EF02F0060E136E12EC00F023EC84
:1006900004F08B8C146AE7EF02F0070E135CD8B4F9
:1006A000E7EF02F0070E136E12EC00F023EC04F0FB
:1006B0008B8E146AE7EF02F0080E135CD8B4E7EFF4
:1006C00002F0080E136E12EC00F023EC04F08A86A0
:1006D000146AE7EF02F0090E135CD8B4E7EF02F0FA
:1006E000090E136E12EC00F023EC04F08A88146AF1
:1006F000E7EF02F0C282C2B27BEF03F01200000EFD
:100700001A5CD8B499EF03F0EECF06F0EECF13F0F9
:10071000EECF1DF0EECF1EF0A1EC03F0E8EC03F0FD
:1007200016EC00F01C681CB093EF03F01A067FEF84
:1007300003F01B6A17EC04F0056812EC00F0FCEF04
:1007400001F0010E065CD8B4C5EC03F0020E065CA5
:10075000D8B4CAEC03F0030E065CD8B4CFEC03F0B7
:10076000040E065CD8B4D4EC03F0050E065CD8B4D5
:10077000D9EC03F0060E065CD8B4DEEC03F0070EED
:10078000065CD8B4E3EC03F0120000C08CFF89864D
:100790000468120001C08CFF89860468120002C040
:1007A0008CFF89860468120003C08CFF8996046A56
:1007B000120002C08CFF8996046A120001C08CFFEF
:1007C0008996046A120000C08CFF8996046A1200A0
:1007D00023EC04F0010E135CD8B48B80020E135C82
:1007E000D8B48B82030E135CD8B48B84040E135CD4
:1007F000D8B48B86050E135CD8B410EC04F0060E4A
:10080000135CD8B48B8C070E135CD8B48B8E080E97
:10081000135CD8B48A86090E135CD8B48A88120097
:100820008B888B8A12008D808D928D9412008D9012
:100830008D828D9412008D908D928D8412008D800A
:100840008D828D8412008B6A8A968A981200010E1E
:10085000076EB20E086E072AD8A02BEF04F0010E27
:10086000076E082AD8A02BEF04F01200240E166E93
:1008700000000000162AD8A03AEF04F01200000E83
:10088000166EFE0E176E162AD8A043EF04F0000E67
:10089000166E172AD8A043EF04F01200D00E076E90
:0E08A00000000000072AD8A052EF04F012005A
:020000040030CA
:0100010008F6
:010003001EDE
:010005008179
:00000001FF
