:020000040000FA
:04000000DCEF01F040
:020004000000FA
:0400080020EF00F0F5
:080018001100F00ED76E600E1E
:10002000D66E12000B6A096A0A6A1200196A186A07
:1000300012000E68106A0F6A12000D6A0C6A120034
:10004000F2A41100F2940DEC00F056EC00F0BEECBE
:1000500000F01CB037EC00F011B044EC00F00EB032
:10006000FAEC00F00BA0D9EF00F0EBEF00F0182A4B
:10007000D8B0192A070E195CD8A41200D00E185C4B
:10008000D8A412001C6A1200182AD8B0192AEA0E45
:10009000195CD8A41200600E185CD8A41200116A72
:1000A00012EC00F0056803EC04F012005FEF00F0C2
:1000B000222A21B0B3EF00F0A8EF00F01200010EE9
:1000C000065CD8B48EEF00F0020E065CD8B488EF60
:1000D00000F0030E065CD8B482EF00F0040E065C5C
:1000E000D8B492EF00F0050E065CD8B482EF00F0B1
:1000F000060E065CD8B488EF00F0070E065CD8B494
:100100008EEF00F0010E1F6E040E206E58EF00F00F
:10011000020E1F6E030E206E58EF00F096EC00F0FA
:100120005EEF00F08A9C8A9E5EEF00F004A09DECDA
:1001300000F004B0A0EC00F012008A8C8A9E12003D
:100140008A9C8A8E120004A08A9C04B08A9E1200A7
:100150002050225CD8A45EEF00F096EC00F0226AFA
:1001600021685EEF00F01F50225CD8A45EEF00F023
:10017000226AA3EC00F0216A5EEF00F0122A140E4E
:10018000125CD8B4C5EC00F0120013C015F08984DD
:100190002BEC04F0010E155CD8B4D6EF00F0150678
:1001A00022EC04F01506D8A4D0EF00F08994126A6E
:1001B00012001BB011000A2AD8B0092AEA0E095C05
:1001C000D8A41100600E0A5CD8A41100010E0B6EB9
:1001D00089861DEC00F00C2AD8B00D2A010E0D5CAA
:1001E000D8A41100F40E0C5CD8A4110089761DEC83
:1001F00000F011000F2AD8B0102A030E105CD8A40A
:100200001200E80E0F5CD8A4120005A0120011B075
:100210001200000E1A5CD8B412001B680BEC04F03C
:1002200085EC01F01200040E065CD8A88996D8B8B7
:1002300089861200056803EC04F030EF01F0056ACE
:1002400007EC04F030EF01F013EC04F011B030EFE4
:1002500001F012EC00F005A01AEF01F01FEF01F021
:1002600081A030EF01F013EC04F013EC01F0120068
:10027000116889EC01F085EC01F016EC00F01A6AC7
:10028000FFEC03F061EF01F0116A03EC04F0056884
:1002900061EF01F013EC04F005A0120012EC00F085
:1002A00019EC00F013EC01F081A254EF01F013EC13
:1002B00004F00E6A1BB0120011A038EF01F044EFF9
:1002C00001F0120013EC04F011A079EF01F01A2AEA
:1002D00006C0EEFF13C0EEFF18C0EEFF19C0EEFF20
:1002E00016EC00F012EC00F01E0E1A5CD8B47FEF92
:1002F00001F081A479EF01F013EC04F01200116A0F
:1003000003EC04F0056879EF01F0E96A010EEA6E8A
:10031000120085EC01F0076A072AEE6AD8A68CEF76
:1003200001F01200600ED36E9B8C120092809282BC
:100330009294929693809382938493969398939CAD
:10034000939E946A956A969096929694F19E120066
:10035000370E006E750E016E0D0E026E7D0E036E71
:100360000568899603C08CFF03EC04F012EC00F0E2
:10037000040E066E050E136E0B6A046A0E6A116A8D
:10038000126A16EC00F01A6A226A216889948A8C33
:100390008A9E0FEC04F08B888B8A12000D0EC16EC2
:1003A000C06A010EC26E1200D09EC00EF26E120024
:1003B0008F0ED56EF28A120092EC01F096EC01F0ED
:1003C000A8EC01F0CEEC01F0D4EC01F0D8EC01F097
:1003D0001BB06BEF03F081A024EC01F081A24AEC8A
:1003E00001F081A462EC01F09BEC02F005A0E8EFC3
:1003F00001F0C2943AEC04F066EC03F08B0EC45C9E
:10040000D8B805EF02F016EF02F0270EC45CD8B89A
:1004100025EF02F04E0EC45CD8B839EF02F0750E2D
:10042000C45CD8B84AEF02F05BEF02F0B20EC45CD5
:10043000D8B86BEF02F0D90EC45CD8B87BEF02F0ED
:10044000FF0EC45CD8B88BEF02F004A08BEF02F073
:10045000010E065CD8B4E8EF01F0010E066E12EC56
:1004600000F000C08CFF0BA08986010E046EE8EF3F
:1004700001F0020E065CD8B4E8EF01F0020E066E41
:1004800012EC00F001C08CFF0BA08986010E046EF7
:10049000E8EF01F0030E065CD8B4E8EF01F0030EBC
:1004A000066E12EC00F002C08CFF0BA08986010ED4
:1004B000046EE8EF01F0040E065CD8B4E8EF01F03A
:1004C000040E066E12EC00F003C08CFF0BA08996A0
:1004D000046AE8EF01F0050E065CD8B4E8EF01F01D
:1004E000050E066E12EC00F002C08CFF0BA0899680
:1004F000046AE8EF01F0060E065CD8B4E8EF01F0FC
:10050000060E066E12EC00F001C08CFF0BA089965F
:10051000046AE8EF01F0070E065CD8B4E8EF01F0DA
:10052000070E066E12EC00F000C08CFF0BA089963F
:10053000046AE8EF01F0C2843AEC04F066EC03F0E0
:10054000890EC45CD8B8A7EF02F0BDEF02F00B0E25
:10055000C45CD8B8D4EF02F02F0EC45CD8B8E7EF73
:1005600002F0530EC45CD8B8FAEF02F0770EC45C08
:10057000D8B80AEF03F01AEF03F0AD0EC45CD8B898
:100580002AEF03F0D10EC45CD8B839EF03F0F50EB2
:10059000C45CD8B848EF03F0FF0EC45CD8B857EF7E
:1005A00003F0D4EF02F0120014A057EF03F0010E95
:1005B000135CD8B4D3EF02F0010E136E12EC00F00E
:1005C0000FEC04F08B80010E146ED3EF02F014A038
:1005D00057EF03F0020E135CD8B4D3EF02F0020E13
:1005E000136E12EC00F00FEC04F08B82010E146E0F
:1005F000D3EF02F0030E135CD8B4D3EF02F0030E76
:10060000136E12EC00F00FEC04F08B84010E146EEC
:10061000D3EF02F0040E135CD8B4D3EF02F0040E53
:10062000136E12EC00F00FEC04F08B86010E146ECA
:10063000D3EF02F0050E135CD8B4D3EF02F0050E31
:10064000136E12EC00F00FEC04F08B888B8A146AA6
:10065000D3EF02F0060E135CD8B4D3EF02F0060E0F
:10066000136E12EC00F00FEC04F08B8C146AD3EFD5
:1006700002F0070E135CD8B4D3EF02F0070E136E2E
:1006800012EC00F00FEC04F08B8E146AD3EF02F042
:10069000080E135CD8B4D3EF02F0080E136E12EC00
:1006A00000F00FEC04F08A86146AD3EF02F0090E12
:1006B000135CD8B4D3EF02F0090E136E12EC00F005
:1006C0000FEC04F08A88146AD3EF02F0C282C2B23F
:1006D00067EF03F01200000E1A5CD8B485EF03F048
:1006E000EECF06F0EECF13F0EECF1DF0EECF1EF002
:1006F0008DEC03F0D4EC03F016EC00F01C681CB099
:100700007FEF03F01A066BEF03F01B6A03EC04F0B3
:10071000056812EC00F0E8EF01F0010E065CD8B4B9
:10072000B1EC03F0020E065CD8B4B6EC03F0030E95
:10073000065CD8B4BBEC03F0040E065CD8B4C0EC85
:1007400003F0050E065CD8B4C5EC03F0060E065C9B
:10075000D8B4CAEC03F0070E065CD8B4CFEC03F0B3
:10076000120000C08CFF89860468120001C08CFF53
:1007700089860468120002C08CFF89860468120012
:1007800003C08CFF8996046A120002C08CFF899610
:10079000046A120001C08CFF8996046A120000C02E
:1007A0008CFF8996046A12000FEC04F0010E135CB2
:1007B000D8B48B80020E135CD8B48B82030E135C0A
:1007C000D8B48B84040E135CD8B48B86050E135CEE
:1007D000D8B4FCEC03F0060E135CD8B48B8C070E77
:1007E000135CD8B48B8E080E135CD8B48A86090EBD
:1007F000135CD8B48A8812008B888B8A12008D8093
:100800008D928D9412008D908D828D9412008D901A
:100810008D928D8412008D808D828D8412008B6A62
:100820008A968A981200010E076EB20E086E072A89
:10083000D8A017EF04F0010E076E082AD8A017EF12
:1008400004F01200240E166E00000000162AD8A034
:1008500026EF04F01200000E166EFE0E176E162A1A
:10086000D8A02FEF04F0000E166E172AD8A02FEF95
:1008700004F01200D00E076E00000000072AD8A076
:060880003EEF04F012003F
:020000040030CA
:0100010008F6
:010003001EDE
:010005008179
:00000001FF
