:020000040000FA
:04000000E7EF01F035
:020004000000FA
:0400080020EF00F0F5
:080018001100F00ED76E600E1E
:10002000D66E12000B6A096A0A6A1200196A186A07
:1000300012000E68106A0F6A12000D6A0C6A120034
:10004000F2A41100F2940DEC00F056EC00F0BEECBE
:1000500000F01CB037EC00F011B044EC00F00EB032
:10006000FAEC00F00BA0D9EF00F0EBEF00F0182A4B
:10007000D8B0192A1E50195CD8A412001D50185C63
:10008000D8A412001C6A1200182AD8B0192AE50E4A
:10009000195CD8A41200E20E185CD8A41200116AF0
:1000A00012EC00F005680EEC04F012005FEF00F0B7
:1000B000222A21B0B3EF00F0A8EF00F01200010EE9
:1000C000065CD8B48EEF00F0020E065CD8B488EF60
:1000D00000F0030E065CD8B482EF00F0040E065C5C
:1000E000D8B492EF00F0050E065CD8B482EF00F0B1
:1000F000060E065CD8B488EF00F0070E065CD8B494
:100100008EEF00F0010E1F6E040E206E58EF00F00F
:10011000020E1F6E030E206E58EF00F096EC00F0FA
:100120005EEF00F08A9C8A9E5EEF00F004A09DECDA
:1001300000F004B0A0EC00F012008A8C8A9E12003D
:100140008A9C8A8E120004A08A9C04B08A9E1200A7
:100150002050225CD8A45EEF00F096EC00F0226AFA
:1001600021685EEF00F01F50225CD8A45EEF00F023
:10017000226AA3EC00F0216A5EEF00F0122A140E4E
:10018000125CD8B4C5EC00F0120013C015F08984DD
:1001900036EC04F0010E155CD8B4D6EF00F015066D
:1001A0002DEC04F01506D8A4D0EF00F08994126A63
:1001B00012001BB011000A2AD8B0092AE50E095C0A
:1001C000D8A41100E20E0A5CD8A41100010E0B6E37
:1001D00089861DEC00F00C2AD8B00D2A010E0D5CAA
:1001E000D8A41100F40E0C5CD8A4110089761DEC83
:1001F00000F011000F2AD8B0102A030E105CD8A40A
:100200001200E80E0F5CD8A4120005A0120011B075
:100210001200000E1A5CD8B412001B6816EC04F031
:1002200090EC01F01200040E065CD8A88996D8B8AC
:100230008986120005680EEC04F030EF01F0056AC3
:1002400012EC04F030EF01F01EEC04F011B030EFCE
:1002500001F012EC00F005A01AEF01F01FEF01F021
:1002600081A030EF01F01EEC04F013EC01F012005D
:10027000116894EC01F090EC01F016EC00F01A6AB1
:100280000AEC04F066EF01F0116A0EEC04F0056868
:10029000000E1A5CD8A485EC01F066EF01F01EECAC
:1002A00004F005A0120012EC00F019EC00F013ECC1
:1002B00001F081A259EF01F01EEC04F00E6A1BB0B0
:1002C000120011A038EF01F044EF01F012001EEC13
:1002D00004F011A07FEF01F01A2A010E1A5CD8A4D5
:1002E00085EC01F006C0EEFF13C0EEFF16EC00F047
:1002F00012EC00F01E0E1A5CD8B48AEF01F081A453
:100300007FEF01F01EEC04F0120018C0EEFF19C0E0
:10031000EEFF1200116A0EEC04F005687FEF01F0A9
:10032000E96A010EEA6E120090EC01F0076A072AF2
:10033000EE6AD8A697EF01F01200600ED36E9B8C88
:1003400012009280928292949296938093829384E8
:1003500093969398939C939E946A956A969096929E
:100360009694F19E1200370E006E750E016E0D0E02
:10037000026E7D0E036E0568899603C08CFF0EEC3D
:1003800004F012EC00F0040E066E050E136E0B6AFC
:10039000046A0E6A116A126A16EC00F01A6A226A7E
:1003A000216889948A8C8A9E1AEC04F08B888B8A47
:1003B00012000D0EC16EC06A010EC26E1200D09EF8
:1003C000C00EF26E12008F0ED56EF28A12009DECF6
:1003D00001F0A1EC01F0B3EC01F0D9EC01F0DFEC9D
:1003E00001F0E3EC01F01BB076EF03F081A024EC08
:1003F00001F081A24FEC01F081A467EC01F0A6ECC2
:1004000002F005A0F3EF01F0C29445EC04F071ECAA
:1004100003F08B0EC45CD8B810EF02F021EF02F0AD
:10042000270EC45CD8B830EF02F04E0EC45CD8B8CA
:1004300044EF02F0750EC45CD8B855EF02F066EFD9
:1004400002F0B20EC45CD8B876EF02F0D90EC45CEC
:10045000D8B886EF02F0FF0EC45CD8B896EF02F071
:1004600004A096EF02F0010E065CD8B4F3EF01F0A1
:10047000010E066E12EC00F000C08CFF0BA0898606
:10048000010E046EF3EF01F0020E065CD8B4F3EF38
:1004900001F0020E066E12EC00F001C08CFF0BA002
:1004A0008986010E046EF3EF01F0030E065CD8B4EA
:1004B000F3EF01F0030E066E12EC00F002C08CFFA9
:1004C0000BA08986010E046EF3EF01F0040E065CAA
:1004D000D8B4F3EF01F0040E066E12EC00F003C086
:1004E0008CFF0BA08996046AF3EF01F0050E065C01
:1004F000D8B4F3EF01F0050E066E12EC00F002C066
:100500008CFF0BA08996046AF3EF01F0060E065CDF
:10051000D8B4F3EF01F0060E066E12EC00F001C045
:100520008CFF0BA08996046AF3EF01F0070E065CBE
:10053000D8B4F3EF01F0070E066E12EC00F000C025
:100540008CFF0BA08996046AF3EF01F0C28445EC9E
:1005500004F071EC03F0890EC45CD8B8B2EF02F07D
:10056000C8EF02F00B0EC45CD8B8DFEF02F02F0E1C
:10057000C45CD8B8F2EF02F0530EC45CD8B805EFF3
:1005800003F0770EC45CD8B815EF03F025EF03F045
:10059000AD0EC45CD8B835EF03F0D10EC45CD8B84A
:1005A00044EF03F0F50EC45CD8B853EF03F0FF0E30
:1005B000C45CD8B862EF03F0DFEF02F0120014A0C1
:1005C00062EF03F0010E135CD8B4DEEF02F0010E0F
:1005D000136E12EC00F01AEC04F08B80010E146E16
:1005E000DEEF02F014A062EF03F0020E135CD8B449
:1005F000DEEF02F0020E136E12EC00F01AEC04F0C3
:100600008B82010E146EDEEF02F0030E135CD8B481
:10061000DEEF02F0030E136E12EC00F01AEC04F0A1
:100620008B84010E146EDEEF02F0040E135CD8B45E
:10063000DEEF02F0040E136E12EC00F01AEC04F080
:100640008B86010E146EDEEF02F0050E135CD8B43B
:10065000DEEF02F0050E136E12EC00F01AEC04F05F
:100660008B888B8A146ADEEF02F0060E135CD8B416
:10067000DEEF02F0060E136E12EC00F01AEC04F03E
:100680008B8C146ADEEF02F0070E135CD8B4DEEF39
:1006900002F0070E136E12EC00F01AEC04F08B8ED1
:1006A000146ADEEF02F0080E135CD8B4DEEF02F03D
:1006B000080E136E12EC00F01AEC04F08A86146A2D
:1006C000DEEF02F0090E135CD8B4DEEF02F0090E83
:1006D000136E12EC00F01AEC04F08A88146ADEEF54
:1006E00002F0C282C2B272EF03F01200000E1A5C76
:1006F000D8B490EF03F0EECF06F0EECF13F0EECFCC
:100700001DF0EECF1EF098EC03F0DFEC03F016ECDA
:1007100000F01C681CB08AEF03F01A0676EF03F0B5
:100720001B6A0EEC04F0056812EC00F0F3EF01F028
:10073000010E065CD8B4BCEC03F0020E065CD8B423
:10074000C1EC03F0030E065CD8B4C6EC03F0040E53
:10075000065CD8B4CBEC03F0050E065CD8B4D0EC44
:1007600003F0060E065CD8B4D5EC03F0070E065C69
:10077000D8B4DAEC03F0120000C08CFF898604685C
:10078000120001C08CFF89860468120002C08CFF31
:1007900089860468120003C08CFF8996046A1200DF
:1007A00002C08CFF8996046A120001C08CFF8996F2
:1007B000046A120000C08CFF8996046A12001AECC9
:1007C00004F0010E135CD8B48B80020E135CD8B415
:1007D0008B82030E135CD8B48B84040E135CD8B4E4
:1007E0008B86050E135CD8B407EC04F0060E135C80
:1007F000D8B48B8C070E135CD8B48B8E080E135CA8
:10080000D8B48A86090E135CD8B48A8812008B8803
:100810008B8A12008D808D928D9412008D908D8226
:100820008D9412008D908D928D8412008D808D821A
:100830008D8412008B6A8A968A981200010E076EC8
:10084000B20E086E072AD8A022EF04F0010E076E40
:10085000082AD8A022EF04F01200240E166E000021
:100860000000162AD8A031EF04F01200000E166E18
:10087000FE0E176E162AD8A03AEF04F0000E166E80
:10088000172AD8A03AEF04F01200D00E076E00002D
:0C0890000000072AD8A049EF04F0120075
:020000040030CA
:0100010008F6
:010003001EDE
:010005008179
:00000001FF
